:020000040800F2
:10000000002800201D180008591500085B1500087D
:100010005D1500085F15000861150008000000006C
:100020000000000000000000000000006315000850
:100030006515000800000000671500086915000834
:10004000651800086518000865180008651800089C
:10005000651800086518000865180008651800088C
:10006000651800086518000865180008651800087C
:10007000651800086518000865180008651800086C
:10008000651800086518000865180008651800085C
:10009000651800086518000865180008651800084C
:1000A000651800086518000865180008651800083C
:1000B000711500088115000800000000651800088F
:1000C0006518000800000000000000006518000826
:1000D0000000000065180008651800080000000016
:1000E0006518000865180008651800080000000081
:1000F0000000000000000000000000000000000000
:0C01000000000000000000005FF808F1A3
:10010C0010B5054C237833B9044B13B10448AFF345
:10011C0000800123237010BD740400200000000037
:10012C00382D000808B5034B1BB103490348AFF346
:10013C00008008BD0000000078040020382D000865
:10014C0010B5074C01224FF48071204601F067FD79
:10015C0001224FF40071204601F061FD10BD00BF7B
:10016C00000C014010B50D4C01224FF400712046DB
:10017C0001F055FD01224FF48071204601F04FFD36
:10018C0000224FF40071204601F049FD00224FF48B
:10019C008071204601F043FD10BD00BF000C0140F2
:1001AC0010B50A4C00224FF40071204601F037FDC7
:1001BC0001224FF48071204601F031FD01224FF4F1
:1001CC000071204601F02BFD10BD00BF000C01405A
:1001DC0070B50646002416E080222241124D3240B2
:1001EC004FF40071284601F01AFD01224FF4807182
:1001FC00284601F014FD00224FF48071284601F0CE
:10020C000EFD0134E4B2072CE6D9074C01224FF461
:10021C008071204601F003FD00224FF480712046CE
:10022C0001F0FDFC70BD00BF000C014010B5044690
:10023C00FFF798FF7820FFF7CBFF0020FFF7C8FFF0
:10024C002046FFF7C5FFFFF7ABFF10BD10B5044606
:10025C00FFF788FF7820FFF7BBFF4020FFF7B8FFC0
:10026C002046FFF7B5FFFFF79BFF10BD10B50C46FE
:10027C0040F0B000FFF7DAFF200940F01000FFF764
:10028C00D5FF04F00F00FFF7D1FF10BD38B50025E6
:10029C0009E00020FFF7DAFF0134E4B214F0800F1C
:1002AC00F7D00135EDB2072D05D800212846FFF710
:1002BC00DDFF0024F2E738BDF8B51546461E760082
:1002CC00F6B24F1EFF00FFB239463046FFF7CEFFA5
:1002DC00002409E0A5F120030F4A02EB0313185D7B
:1002EC00FFF7B4FF0134E4B2072CF3D9701C394684
:1002FC00C0B2FFF7BBFF00240BE0A5F1200304F113
:10030C000802054901EB0313985CFFF79FFF0134CA
:10031C00E4B2072CF1D9F8BD502D000808B5002225
:10032C0004E00133B3F57A7FFBD30132B2F57A7F67
:10033C0001D20023F6E7FFF703FFAE20FFF776FFAD
:10034C00D520FFF773FF8020FFF770FFA820FFF781
:10035C006DFF3F20FFF76AFFD320FFF767FF0020F8
:10036C00FFF764FF4020FFF761FFA120FFF75EFF5E
:10037C00C820FFF75BFFDA20FFF758FF1220FFF7CA
:10038C0055FF8120FFF752FFCF20FFF74FFFD920F9
:10039C00FFF74CFFF120FFF749FFDB20FFF746FF8B
:1003AC003020FFF743FFA420FFF740FFA620FFF704
:1003BC003DFF8D20FFF73AFF1420FFF737FFAF20EA
:1003CC00FFF734FFFFF762FF08BDF8B507460E468E
:1003DC001546002406E0A119C9B23846FFF76CFF98
:1003EC000134E4B22A5D002AF5D1F8BD02460120A1
:1003FC0002E002FB00F019464B1E0029F9D17047B0
:10040C002DE9F8438146884617461E46002419E01C
:10041C0004EB0805EDB2311B01390A20FFF7E6FFAA
:10042C00B7FBF0F0094AA2FB0032D20802EB8202C1
:10043C00A0EB42023032D2B229464846FFF73CFFCD
:10044C000134E4B2B442E3D3BDE8F883CDCCCCCCD8
:10045C0010B5184B1A680023936314E0164A03EB8B
:10046C0043004100541832F801E0144908880EFB8F
:10047C0000FC134890FBFCF0A080124991FBFEF1AC
:10048C0061800133DBB2022BE8D90F4B0A4A92E8A8
:10049C0003001860998002F10C01D068C3F80600C3
:1004AC00128A5A8103C9D8601982C3F81200DA8201
:1004BC0010BD00BF680500200400002000000020D3
:1004CC0000879303803801009404002030B51E4B44
:1004DC0018801E4B19801E4B1A80002314E01D49F6
:1004EC0003EB430401EB440E31F814C00CFB02F493
:1004FC00194D95FBF4F5AEF80450184C94FBFCF434
:10050C00AEF802400133DBB2022BE8D9002314E031
:10051C00134AD25C134903EB430C01EB4C0E0D4C0C
:10052C0002EB420204EB420554F8122041F81C2065
:10053C00AA88AEF804200133DBB29AB29042E7D815
:10054C00094B01221A7030BD160000201800002043
:10055C00000000200400002000879303A086010007
:10056C001C000020940400209004002030B40A4B9E
:10057C001B780A4A03EB43004100505A084C25688B
:10058C004008A863515AE96203EB43035900535ADC
:10059C00E36030BC704700BFF404002094040020DA
:1005AC006805002010B5094A116800238B63084BBD
:1005BC001B78084803EB430E4FEA4E0C30F80C4006
:1005CC00CC6230F80C30D36010BD00BF6805002041
:1005DC00F40400209404002010B5032818D8DFE898
:1005EC0000F002182E442C4C01221021204601F060
:1005FC0016FB00222021204601F011FB0022402195
:10060C00204601F00CFB00228021204601F007FB64
:10061C0010BD214C00221021204601F000FB0122CC
:10062C002021204601F0FBFA00224021204601F057
:10063C00F6FA00228021204601F0F1FAE8E7164C88
:10064C0000221021204601F0EAFA00222021204647
:10065C0001F0E5FA01224021204601F0E0FA0022E7
:10066C008021204601F0DBFAD2E70B4C002210214E
:10067C00204601F0D4FA00222021204601F0CFFAC6
:10068C0000224021204601F0CAFA01228021204696
:10069C0001F0C5FABCE700BF0008014010B50B4CD7
:1006AC0000221021204601F0BAFA00222021204617
:1006BC0001F0B5FA00224021204601F0B0FA0022E8
:1006CC008021204601F0ABFA10BD00BF00080140AC
:1006DC0008B5264B1B78012B1AD0254A13880133F9
:1006EC009BB21380234A127802EB42014800224944
:1006FC00014449888B4216D8204B1B7883B1FFF7F5
:10070C0051FF1C4B187800F00300FFF765FF08BD84
:10071C000023174A1380174A1370144A1370DCE72E
:10072C00FFF724FFEDE702EB4201480012490144B8
:10073C0089888B4204D8FFF735FFFFF7AFFFE6E758
:10074C000B4B002119800132D2B20A4B1A700C49A2
:10075C00098892FBF1F001FB1022D2B21A7001232E
:10076C001A440C210220FFF74BFED0E79004002026
:10077C00F6040020F4040020940400202A05002034
:10078C00160000202DE9F04788B000260496059647
:10079C00069607963F4B9A6942F010029A619A6945
:1007AC0002F010020092009A9A6942F020029A61BB
:1007BC009A6902F020020192019A9A6942F00402AD
:1007CC009A619A6902F004020292029A9A6942F0C2
:1007DC0008029A619B6903F008030393039BDFF8FB
:1007EC00B8A001224FF42041504601F018FADFF86E
:1007FC00AC800122F021404601F011FA284F012271
:10080C0040F60271384601F00AFA4FF40053049393
:10081C000124059406940325079504A9504601F07C
:10082C00E7F84FF40043049305944FF00209CDF818
:10083C001890079504A9504601F0DAF8F0230493B8
:10084C000594CDF81890079504A9404601F0D0F80E
:10085C0040F6024304930594CDF81890079504A92B
:10086C00384601F0C5F84FF490530493059606945E
:10087C0004A9404601F0BCF84FF44073049305946E
:10088C000694079504A9384601F0B2F808B0BDE803
:10089C00F08700BF0010024000100140000801402A
:1008AC00000C01400A4B1B78012B05D043B1032BE4
:1008BC0006D0022B08D07047064B01221A707047E5
:1008CC00054B00221A707047034B01221A70F2E795
:1008DC00F80400205905002037000020074B1B7836
:1008EC00012B09D8064B1B781BB9054B01221A703A
:1008FC007047034B00221A70704700BFF8040020A9
:10090C0058050020034B1B78012B02D1024B01220E
:10091C001A707047F804002028050020084B1B783B
:10092C00012B06D00BB1032B02D1064B01221A70FE
:10093C007047054A1378B3FA83F35B091370704759
:10094C00F8040020290500203800002008B518B153
:10095C00012807D0002008BD4FF48051044801F055
:10096C0057F9F8E74FF40071014801F051F9F2E73B
:10097C000008014008B5074B1B78012B00D008BDBF
:10098C004FF40051044801F050F9044B01221A7045
:10099C00F5E700BFF80400200010014028050020F6
:1009AC0010B5614B1B785BB1032B09D0012B50D0D8
:1009BC00022B4DD15D4A0E210120FFF706FD47E0C9
:1009CC0002235B4A128801210846FFF719FD2F22EA
:1009DC0003210120FFF770FC0223564A12880421E0
:1009EC000120FFF70DFD544A01210220FFF7EDFC19
:1009FC000323524A128805210220FFF701FD504AB9
:100A0C0001210420FFF7E1FC02234E4A1278042155
:100A1C000846FFF7F5FC4C4A06210420FFF7D5FCED
:100A2C0002234A4A127808210420FFF7E9FC484ABD
:100A3C000A210420FFF7C9FC0223464A12780C2134
:100A4C000420FFF7DDFC444A0E210420FFF7BDFC17
:100A5C0010BD424C0223228801210846FFF7D0FC2E
:100A6C002F2203210120FFF727FC02236288042197
:100A7C000120FFF7C5FC304A01210220FFF7A5FC3D
:100A8C000323A28805210220FFF7BAFC344A012176
:100A9C000420FFF79AFCE28802230132052104208E
:100AAC00FFF7AEFC2F4A09210420FFF78EFC2389A7
:100ABC002D4AD25C10210420FFF7FEFB2B4B1B7838
:100ACC006BB12B220E210320FFF7F6FB284B1B7872
:100ADC00042BBDD8DFE803F0090F151B21002D22D4
:100AEC000E210320FFF7E8FBF0E7224A0C2101203E
:100AFC00FFF76BFCACE7204A0C210120FFF765FCEB
:100B0C00A6E71E4A0C210120FFF75FFCA0E71C4A58
:100B1C000C210120FFF759FC9AE71A4A0C210120FD
:100B2C00FFF753FC94E700BFF80400209033000853
:100B3C00160000201800002044330008000000209C
:100B4C004C330008600500208C3300086105002040
:100B5C005033000862050020543300082C0000209C
:100B6C005833000860330008403300083800002078
:100B7C00F50400206833000870330008783300084F
:100B8C00803300088833000810B53A4B1B78002BD3
:100B9C0035D0032B33D0012B46D1374C022322887E
:100BAC0001210846FFF72CFC022362880421012056
:100BBC00FFF726FC0323A28805210220FFF720FC67
:100BCC00E2880223013205210420FFF719FC238956
:100BDC002A4AD25C10210420FFF76EFB284B1B78AD
:100BEC001BB32B220E210320FFF766FB254B1B7832
:100BFC00042B19D8DFE803F01F252B313700022313
:100C0C00214A127804210846FFF7FAFB02231F4AF7
:100C1C00127808210420FFF7F3FB02231C4A1278F8
:100C2C000C210420FFF7ECFB10BD2D220E2103201C
:100C3C00FFF742FBDAE7174A0C210120FFF7C5FB4F
:100C4C00F2E7154A0C210120FFF7BFFBECE7134A32
:100C5C000C210120FFF7B9FBE6E7114A0C2101201A
:100C6C00FFF7B3FBE0E70F4A0C210120FFF7ADFBC8
:100C7C00DAE700BFF80400202C0000204033000805
:100C8C0038000020F50400206005002061050020DC
:100C9C0062050020683300087033000878330008C0
:100CAC008033000888330008054B1A78054B1B78F5
:100CBC009A4203D0024A13700120704700207047FB
:100CCC0036000020F804002008B594E0A54B1B78F2
:100CDC0093B1A54B1B78012B39D0A44B1B78002B5F
:100CEC003CD0A34B1B78002B74D0A24B03221A7060
:100CFC009F4B00221A707EE09F4BA04A12881A80EC
:100D0C009F4A12885A809F4A12889A800124954BD8
:100D1C001C709D4B1C709D4B1C7000269C4B1E70B8
:100D2C0004219C4801F0F0FD9B4D22464FF480615C
:100D3C00284600F074FF32460221284600F06FFF6F
:100D4C0032464FF40061284600F069FF53E0894BAE
:100D5C0001221A70844B00221A704CE0854B02223F
:100D6C001A7048E0894B00221A700421894801F05E
:100D7C0059FE7D4B1B78012B4ED0884B1B7883B1D1
:100D8C0087490B780133DBB20B70864AA2FB030256
:100D9C0002F0FC0000EB92029B1A0B707F4B0022BE
:100DAC001A70814B1B78012B42D07B4C0122022103
:100DBC00204600F034FF00224FF40061204600F082
:100DCC002EFF00224FF48061204600F028FF654B77
:100DDC0000221A70FFF768FF012800F086816A4B29
:100DEC001B781BB9634B1B78012B04D1664B00227B
:100DFC001A70FFF7C9FE5F4B1B78032B00F26D8155
:100E0C0001A252F823F000BFD90C0008710D0008A4
:100E1C00011000085F100008574B9A8899781878D1
:100E2C00FFF754FB0023534A13704F4A1370A4E787
:100E3C005B4B1B78042B75D8DFE803F00322406171
:100E4C00BC005A4A12786AB14B4931F8132001326E
:100E5C0092B221F81320102A64D90A46012122F8F3
:100E6C0013105FE0444931F81320013A92B221F893
:100E7C001320002A56D10A46102122F8131051E0F3
:100E8C004A4A12786AB13C4931F81320520092B2A6
:100E9C0021F81320102A45D90A46022122F81310F2
:100EAC0040E0354931F81320520821F81320012A6B
:100EBC0038D80A46102122F8131033E03B4A127836
:100ECC007AB12D4931F81320013292B221F8132056
:100EDC00B2F5C87F26D30A464FF4C87122F8131016
:100EEC0020E0254931F81320013A92B221F8132061
:100EFC00142A17D80A46142122F8131012E02B4B8F
:100F0C001B781BB31C4AD38801339BB2D380118846
:100F1C00B3FBF1F001FB1033D380174BDA88244973
:100F2C008A5C1A811C4C01224FF40061204600F0AF
:100F3C0076FE052000F0DCFC00224FF40061204618
:100F4C0000F06DFE184B00221A702EE70A4BDB885E
:100F5C0023B9094A1388013BD380DEE7013B064ADB
:100F6C00D380DAE75B05002058050020370000200D
:100F7C0029050020F80400202C0000201600002079
:100F8C0018000020000000205A050020F805002061
:100F9C002A05002068050020000C0140590500209E
:100FAC00F5040020CDCCCCCC280500203800002046
:100FBC001C000020524B1B788BB152490B8901331A
:100FCC009BB20B810322B3FBF2F202EB42029B1A9F
:100FDC000B814C4B1989DB884B4AD154A2E7494B06
:100FEC001B891BB1013B474A1381F2E7454B022297
:100FFC001A81EEE7454B00221A70454B1B78012BEA
:10100C0016D00421434801F00DFD434C01224FF44E
:10101C000061204600F003FE00220221204600F071
:10102C00FEFD00224FF48061204600F0F8FDD1E671
:10103C003A4B1B782BB11346394A1370374A13704D
:10104C00D9E6374B03221A700421324801F05CFCBC
:10105C00D1E6344B1B78002B35D12D4B1B78002B54
:10106C0037D02E4B00221A70284B01221A702E4BAF
:10107C001A782E4BA3FB02139B0803EB4303A2EB42
:10108C00430313F0FF0F0BD1294B1B7843B1284BB3
:10109C0000221A70274A1378B3FA83F35B09137092
:1010AC001D4C01224FF40061204600F0B8FD0022D7
:1010BC000221204600F0B3FD01224FF4806120464E
:1010CC0000F0ADFD86E60023164A1370144A137027
:1010DC0091E6134B02221A708DE604210D4801F0A3
:1010EC00A1FC0E4B00221A7074E60D4B1B78022BE0
:1010FC0002D1FFF755FC72E6FFF7C8F8F9E700BF1D
:10110C00380000202C0000201C000020F8050020D6
:10111C003700002068050020000C01405B05002012
:10112C00F80400202905002062050020ABAAAAAA19
:10113C00630500202A05002072B6FEE700B591B0C9
:10114C002822002106A801F02FFD00230193029311
:10115C00039304930593012206924FF48033079373
:10116C000A9202220D920E934FF4E0130F9306A8ED
:10117C0000F07AFD80B90F23019302210291002324
:10118C0003934FF480620492059301A800F09EFF34
:10119C0020B911B05DF804FBFFF7CEFFFFF7CCFFD1
:1011AC0008B500F081FBFFF7C9FFFFF7EBFA00F081
:1011BC007FFA00F0E9F9214D214C00230122294648
:1011CC00204600F04FF81F4A0321204600F065F836
:1011DC001D4A0421204600F060F8204600F074F906
:1011EC001A4C01231A462946204600F03BF8184AAF
:1011FC000321204600F051F8164A0621204600F043
:10120C004CF8154A0421204600F047F8204600F01F
:10121C005BF9FFF71DF9114801F0C0F8FFF77EF8F4
:10122C000F4A05210220FFF7D0F84FF4FA6000F0C6
:10123C005FFBFFF72BF8FFF747FD00BF59090008CC
:10124C002C050020B1080008E9080008FC04002067
:10125C00810900081109000829090008B0050020BF
:10126C0094330008F8B504460E4617461D462C224A
:10127C00002101F099FCA378082262F30713A370F4
:10128C00A6602846B047E37860F3C713E370DBB27F
:10129C0067F38613E3702571F8BD023100EB810012
:1012AC004260704710B50446836800799847E3782C
:1012BC0013F0070F02D0238801332380E378B0EBBF
:1012CC00D31F13D01A46C3F3C203013303F0070331
:1012DC0063F3C502E270022B0CD9D3B260F3C713CF
:1012EC00E370DBB26FF3C503E37003E0E3786FF3F5
:1012FC00C503E370E37803F00703052B00F2DE80EF
:10130C00DFE813F00600260050009700DC00BE005A
:10131C00E378C3F38012B2EBD31F05D0A378082275
:10132C0062F30713A370CDE0A3786FF30713A370D8
:10133C00E3680BB12046984700232380A378012251
:10134C0062F30303A370E37862F30203E370B9E082
:10135C00E378C3F38012B2EBD31F10D0A378012231
:10136C0062F30713A37023690BB12046984700233F
:10137C002380E378022262F30203E370A2E0238865
:10138C00C82B40F29F80A378052262F30713A37049
:10139C00236A0BB120469847E378052262F30203D7
:1013AC00E3708FE0E378C3F38012B2EBD31F0FD05E
:1013BC0023883C2B40F28680A37803F00F03012B8B
:1013CC0021D0022B2AD0E3786FF30203E37079E08B
:1013DC00A3786FF30713A370E3680BB1204698470B
:1013EC00A37803F00F02013262F30303A370636965
:1013FC000BB12046984700232380E378032262F345
:10140C000203E3705EE0A378032262F30713A37078
:10141C00A369002BD7D020469847D4E7A3780422A1
:10142C0062F30713A370E369002BCCD020469847D6
:10143C00C9E7E378C3F38012B2EBD31F18D0A378BB
:10144C00012262F30713A37023690BB1204698475E
:10145C0023883B2B07D800232380E378022262F3F6
:10146C000203E3702EE0E3786FF30203E37029E0EC
:10147C0023883C2B26D9E3786FF30203E37021E039
:10148C00E378C3F38012B2EBD31F0DD0A378012203
:10149C0062F30713A37023690BB120469847E378D6
:1014AC006FF30203E3700DE0A378062262F30713D7
:1014BC00A370636A33B12046984703E0E3786FF377
:1014CC000203E37010BD0000074B1A68134600E0DE
:1014DC009B6A23B18342FBD14FF0FF30704782628D
:1014EC00014B1860002070475C05002010B5054BBF
:1014FC001C6803E02046FFF7D5FEA46A002CF9D146
:10150C0010BD00BF5C05002082B00E4B9A6942F002
:10151C0001029A619A6902F001020092009ADA695A
:10152C0042F08052DA61DB6903F080530193019B36
:10153C00054A536823F0E06343F00073536002B034
:10154C00704700BF0010024000000140FEE7FEE7BC
:10155C00FEE7FEE7FEE770477047704708B500F0FE
:10156C00B5F908BD08B5024800F04CFF08BD00BF36
:10157C006805002008B5024800F044FF08BD00BF14
:10158C00B00500207047000000B587B0002302931F
:10159C00039304930593009301931548154A026035
:1015AC0047224260836041F28832C260036180232B
:1015BC00836101F017F890B94FF48053029302A99C
:1015CC000B4801F013F968B90023009301936946A5
:1015DC00074801F091FA40B907B05DF804FBFFF73A
:1015EC00ABFDE9E7FFF7A8FDEEE7FFF7A5FDF3E795
:1015FC00B00500200004004000B583B00368B3F1CF
:10160C00804F05D0164A934216D003B05DF804FB08
:10161C0003F50433DA6942F00102DA61DB6903F0A5
:10162C0001030093009B002203211C2000F086F98B
:10163C001C2000F0BBF9E8E70A4BDA6942F0020221
:10164C00DA61DB6903F002030193019B002211466E
:10165C001D2000F073F91D2000F0A8F9D5E700BF9C
:10166C00000400400010024000B587B00023029334
:10167C000393049305930368B3F1804F02D007B032
:10168C005DF804FB03F504339A6942F004029A6195
:10169C009B6903F004030193019B022302930393C0
:1016AC00059302A9014800F0A3F9E8E700080140FE
:1016BC0000B58FB000230A930B930C930D930893F2
:1016CC000993019302930393049305930693079351
:1016DC0023484FF0804202604722426083604FF4FF
:1016EC008E62C2600361836100F07CFF40BB4FF4EB
:1016FC0080530A930AA91A4801F078F818BB1848C5
:10170C0000F09CFF10BB00230893099308A9144810
:10171C0001F0F2F9E8B9702301934FF40E730293C0
:10172C0002230393042205920DEB02010C4800F0F6
:10173C00E3FF88B90A48FFF797FF0FB05DF804FB89
:10174C00FFF7FAFCD3E7FFF7F7FCD8E7FFF7F4FC59
:10175C00D9E7FFF7F1FCDEE7FFF7EEFCEAE700BFA5
:10176C006805002008B50368B3F1804F00D008BDB0
:10177C00034B1B686FF001021A61FEF7A9FFF6E735
:10178C006805002002681A4B9A4200D0704710B5C9
:10179C00184C238801332380FFF7A8FE2388C72B1E
:1017AC0014D900222280144B01221A70134B1B787F
:1017BC0063B1134B1A70134A13780133DBB21370F5
:1017CC003C2B04D0104B1B783C2B08D010BD13467F
:1017DC0000221A700C4A137801331370F2E70A4B8B
:1017EC0000221A70094A137801331370EEE700BF18
:1017FC0000040040640500205A050020F805002074
:10180C0063050020620500206105002060050020B2
:10181C00FFF7B8FE0B480C490C4A002302E0D458E1
:10182C00C4500433C4188C42F9D3094A094C002320
:10183C0001E013600432A242FBD301F091F9FFF7EF
:10184C00AFFC70470000002074040020D033000867
:10185C007404002004060020FEE7000010B50446C6
:10186C000E4B18784FF47A73B3FBF0F30C4A1068F4
:10187C00B0FBF3F000F0A8F868B90F2C01D90120E7
:10188C000AE0002221464FF0FF3000F057F8054BDC
:10189C001C60002000E0012010BD00BF40000020B3
:1018AC003C0000204400002008B5074A136843F0B0
:1018BC0010031360032000F02FF80F20FFF7CEFF6A
:1018CC00FFF722FE002008BD00200240034A1168E9
:1018DC00034B1B780B441360704700BFFC050020C2
:1018EC0040000020014B1868704700BFFC05002029
:1018FC0038B50446FFF7F6FF0546B4F1FF3F02D0BA
:10190C00044B1B781C44FFF7EDFF401BA042FAD39D
:10191C0038BD00BF40000020074AD36823F4E063C1
:10192C001B041B0C000200F4E060034343F0BF6394
:10193C0043F40033D360704700ED00E000B5194B61
:10194C00DB68C3F30223C3F1070CBCF1040F28BFFF
:10195C004FF0040C03F1040EBEF1060F18D9033B33
:10196C004FF0FF3E0EFA0CFC21EA0C0199400EFAE6
:10197C0003F322EA0303194300280BDB0901C9B264
:10198C0000F1604000F5614080F800135DF804FB45
:10199C000023E5E700F00F000901C9B2024B19540E
:1019AC00F4E700BF00ED00E014ED00E0002807DBD9
:1019BC0000F01F02400901239340024A42F82030F4
:1019CC00704700BF00E100E00138B0F1807F0BD21E
:1019DC004FF0E0235861054AF02182F823100020D3
:1019EC00986107221A6170470120704700ED00E0F2
:1019FC0070B582B00024A4468BE07F4DAA4210D073
:101A0C0007D97E4DAA420CD005F58035AA4208D0E4
:101A1C0015E0A5F58015AA4203D005F57025AA425C
:101A2C0009D18A68002A00F0BF80012A00F0B78033
:101A3C004361082403E0A5F58015AA42F1D0BEF15C
:101A4C00FF0F00F2B3800646BEF1FF0F00F2B0802C
:101A5C004FEA8C0233680F25954023EA050304FAFC
:101A6C0002F2134333604B6813F0805F4FD0644B2A
:101A7C009A6942F001029A619B6903F00103019398
:101A8C00019B4FEA9C02951C5E4B53F825600CF0B1
:101A9C0003039D000F23AB4026EA03065A4B9842E2
:101AAC0000F08C8003F58063984200F0898003F588
:101ABC008063984200F080800323AB4033430232B2
:101ACC00504D45F822304B6813F4801F7AD04F4AA2
:101ADC00936843EA0E0393604B6813F4001F77D0AE
:101AEC004A4AD36843EA0E03D3604B6813F4003FB1
:101AFC0074D0464A536843EA0E0353604B6813F4A0
:101B0C00803F71D0414A136843EA0E0313600CF115
:101B1C00010C0A6832FA0CF36CD0012303FA0CF3B3
:101B2C0002EA030E33EA0202F1D14A68122A3FF6A6
:101B3C0064AF122A83D801A555F822F02F1A000899
:101B4C00951B00089F1B0008B11B00084B1A0008CE
:101B5C004B1A00084B1A00084B1A00084B1A0008C5
:101B6C004B1A00084B1A00084B1A00084B1A0008B5
:101B7C004B1A00084B1A00084B1A00084B1A0008A5
:101B8C00991B0008A51B0008CC6858E7CC680434E6
:101B9C0055E7CC68083452E7CC680C344FE7036146
:101BAC0008244CE700244AE7042448E7061D4BE7C9
:101BBC00ACF1080292004DE702237EE700237CE79C
:101BCC0001237AE7114A936823EA0E03936083E7B3
:101BDC000E4AD36823EA0E03D36086E70B4A536898
:101BEC0023EA0E03536089E7084A136823EA0E03BD
:101BFC0013608CE702B070BD0000221000003110A1
:101C0C0000100240000001400008014000040140A7
:101C1C008368194201D001207047002070470AB137
:101C2C0001617047090401617047C36801EA03024E
:101C3C0021EA030141EA02410161704782B0084B7D
:101C4C001B68084AA2FB03235B0A00FB03F3019306
:101C5C0000BF019B5A1E0192002BF9D102B07047B4
:101C6C003C000020D34D6210002800F0F18170B5CB
:101C7C0082B00446036813F0010F2CD0994B5B68BB
:101C8C0003F00C03042B1DD0964B5B6803F00C0384
:101C9C00082B12D06368B3F5803F41D0002B55D18F
:101CAC0003F1804303F504331A6822F480321A607E
:101CBC001A6822F480221A6037E08A4B5B6813F4AE
:101CCC00803FE7D0874B1B6813F4003F03D0636859
:101CDC00002B00F0BF81236813F0020F75D0814BED
:101CEC005B6813F00C0F5FD07E4B5B6803F00C034A
:101CFC00082B54D02369002B00F08A807A4B0122E8
:101D0C001A60FFF7EFFD0546764B1B6813F0020FC8
:101D1C0075D1FFF7E7FD401B0228F5D903209EE1A2
:101D2C00704A136843F480331360636843B3FFF75E
:101D3C00D9FD05466B4B1B6813F4003FCBD1FFF765
:101D4C00D1FD401B6428F5D9032088E1B3F5A02F01
:101D5C0009D0644B1A6822F480321A601A6822F493
:101D6C0080221A60E1E703F18043A3F53C331A6843
:101D7C0042F480221A601A6842F480321A60D4E766
:101D8C00FFF7B0FD0546574B1B6813F4003FA2D07C
:101D9C00FFF7A8FD401B6428F5D903205FE1514BE8
:101DAC005B6813F4803FA5D14E4B1B6813F0020FF8
:101DBC0003D02369012B40F04F814A4A136823F06A
:101DCC00F803616943EAC1031360236813F0080F39
:101DDC0033D0A369002B5CD0434B0122C3F8802481
:101DEC00FFF780FD05463F4B5B6A13F0020F21D1D4
:101DFC00FFF778FD401B0228F5D903202FE1394A63
:101E0C00136823F0F803616943EAC1031360DCE74C
:101E1C00354B00221A60FFF765FD0546314B1B68F8
:101E2C0013F0020FD1D0FFF75DFD401B0228F5D94E
:101E3C00032014E10120FFF701FF236813F0040FC6
:101E4C0000F09680274BDB6913F0805F34D1254B73
:101E5C00DA6942F08052DA61DB6903F08053019356
:101E6C00019B0125214B1B6813F4807F26D0E3686E
:101E7C00012B3DD0002B53D103F1804303F50433E8
:101E8C001A6A22F001021A621A6A22F004021A6219
:101E9C0033E0154B0022C3F88024FFF723FD0546E1
:101EAC00104B5B6A13F0020FC7D0FFF71BFD401BF2
:101EBC000228F5D90320D2E00025D3E70B4A13689A
:101ECC0043F480731360FFF70DFD0646074B1B6848
:101EDC0013F4807FCBD1FFF705FD801B6428F5D967
:101EEC000320BCE0001002400000424200700040A1
:101EFC005F4A136A43F001031362E36833B3FFF7DD
:101F0C00F1FC06465A4B1B6A13F0020F2FD1FFF758
:101F1C00E9FC801B41F288339842F3D903209EE000
:101F2C00052B09D0524B1A6A22F001021A621A6A66
:101F3C0022F004021A62E0E74D4B1A6A42F00402E6
:101F4C001A621A6A42F001021A62D6E7FFF7CAFC5B
:101F5C000646474B1B6A13F0020F08D0FFF7C2FC72
:101F6C00801B41F288339842F3D9032077E0E5B91E
:101F7C00E369002B72D03E4A526802F00C02082A28
:101F8C0056D0022B17D03B4B00221A66FFF7AAFC47
:101F9C000446374B1B6813F0007F47D0FFF7A2FCB9
:101FAC00001B0228F5D9032059E0314AD36923F0EC
:101FBC008053D361DCE72F4B00221A66FFF792FCAB
:101FCC0005462B4B1B6813F0007F06D0FFF78AFCED
:101FDC00401B0228F5D9032041E0236AB3F5803F6A
:101FEC001AD023494B6823F47413226A606A0243A3
:101FFC0013434B601F4B01221A66FFF773FC044618
:10200C001B4B1B6813F0007F0ED1FFF76BFC001B02
:10201C000228F5D9032022E0154A536823F4003333
:10202C00A1680B435360DCE7002018E0002016E0A9
:10203C00012B16D00E4B5B6803F48031226A91425F
:10204C0011D103F47013626A93420ED1002006E0A2
:10205C0001207047012002E0012000E0002002B0C6
:10206C0070BD0120FBE70120F9E70120F7E700BF75
:10207C0000100240000042420F4B5B6803F00C0260
:10208C00082A01D00D487047C3F383420C49885C81
:10209C0013F4803F0BD0084B5B68C3F34043094AF1
:1020AC00D35C064A02FB00F0B0FBF3F07047064B22
:1020BC0003FB00F0704700BF0010024000127A00D2
:1020CC00AC330008BC33000800093D00002800F0C8
:1020DC00A08070B50D460446524B1B6803F00703F5
:1020EC008B420BD24F4A136823F007030B43136048
:1020FC00136803F007038B4240F08D80236813F0C4
:10210C00020F17D013F0040F04D0474A536843F45E
:10211C00E0635360236813F0080F04D0424A5368FD
:10212C0043F460535360404A536823F0F003A168B2
:10213C000B435360236813F0010F31D06368012BFC
:10214C0020D0022B25D0384A126812F0020F64D02E
:10215C0035494A6822F0030213434B60FFF7C2FB78
:10216C000646314B5B6803F00C036268B3EB820FDD
:10217C0016D0FFF7B7FB801B41F288339842F0D999
:10218C00032045E0284A126812F4003FE0D10120F8
:10219C003EE0254A126812F0007FD9D1012037E0C9
:1021AC00204B1B6803F00703AB420AD91D4A136886
:1021BC0023F007032B431360136803F00703AB42B0
:1021CC002DD1236813F0040F06D0174A536823F45B
:1021DC00E063E1680B435360236813F0080F07D0EA
:1021EC00114A536823F46053216943EAC1035360D5
:1021FC00FFF742FF0C4B5B68C3F303130B4AD35C32
:10220C00D8400B4B18600B4B1868FFF727FB0020CE
:10221C0070BD012070470120FAE70120F8E701208A
:10222C00F6E700BF00200240001002409C3300087B
:10223C003C0000204400002070B4036A026A22F0C3
:10224C00010202624668826922F073020C6844EA59
:10225C00020523F002028B6813430D4CA04209D0F7
:10226C000B4CA0420DD0466085614A684263036204
:10227C0070BC704723F00803CA68134323F00403AF
:10228C00EEE726F440764A6932438E691643EAE754
:10229C00002C014030B4036A026A22F4807202629C
:1022AC004568C26922F073020C68224323F4007360
:1022BC008C6843EA04230F4CA04209D00D4CA04279
:1022CC000ED04560C2614A68C263036230BC70477D
:1022DC0023F40063CC6843EA042323F48063EDE722
:1022EC0025F440554C6945EA04158C6945EA0415FA
:1022FC00E7E700BF002C014030B4036A026A22F405
:10230C00805202624468C26922F4E6420D6842EAD5
:10231C00052223F400538D6843EA0533074DA84288
:10232C0006D04460C2614A680264036230BC7047E4
:10233C0024F480444D6944EA8514F2E7002C0140F2
:10234C0010B4036A046A24F001040462846924F062
:10235C00F00C4CEA021223F00A030B438261036275
:10236C0010BC704710B4036A046A24F010040462B1
:10237C00846924F4704C4CEA023223F0A00343EA43
:10238C0001138261036210BC7047836823F07003F1
:10239C000B4343F0070383607047000090F83D3017
:1023AC00DBB2012B23D1022380F83D300268D368C5
:1023BC0043F00103D36003680F4A93420CD0B3F18E
:1023CC00804F09D0A2F59432934205D01A6842F09E
:1023DC0001021A60002070479A6802F00702062A70
:1023EC0007D01A6842F001021A60002070470120E1
:1023FC0070470020704700BF002C014070477047A9
:10240C007047704710B5044603681A6912F0020F42
:10241C0011D0DA6812F0020F0DD06FF002021A61BF
:10242C000123037703689B6913F0030F70D0FFF748
:10243C00E7FF0023237723681A6912F0040F12D0E8
:10244C00DA6812F0040F0ED06FF004021A61022346
:10245C00237723689B6913F4407F5FD02046FFF7F6
:10246C00CFFF0023237723681A6912F0080F12D0CC
:10247C00DA6812F0080F0ED06FF008021A6104230C
:10248C0023772368DB6913F0030F4ED02046FFF748
:10249C00B7FF0023237723681A6912F0100F12D0AC
:1024AC00DA6812F0100F0ED06FF010021A610823C8
:1024BC0023772368DB6913F4407F3DD02046FFF778
:1024CC009FFF0023237723681A6912F0010F03D0B2
:1024DC00DA6812F0010F36D123681A6912F0800FF6
:1024EC0003D0DA6812F0800F34D123681A6912F025
:1024FC00400F03D0DA6812F0400F32D123681A690A
:10250C0012F0200F03D0DA6812F0200F30D110BD7A
:10251C00FFF775FF2046FFF725F98AE72046FFF7FE
:10252C006EFF2046FFF71EF99BE72046FFF767FF7B
:10253C002046FFF717F9ACE72046FFF760FF20466F
:10254C00FFF710F9BDE76FF001021A612046FFF7A3
:10255C0019F9C1E76FF080021A61204600F0FFFA0A
:10256C00C3E76FF040021A612046FFF74AFFC5E748
:10257C006FF020021A61204600F0F0FAC7E7000065
:10258C000368174A904206D0B0F1804F03D0A2F5F1
:10259C009432904203D123F070034A681343104ADB
:1025AC00904206D0B0F1804F03D0A2F59432904205
:1025BC0003D123F44073CA68134323F080034A69A0
:1025CC00134303608B68C3620B688362044B9842AD
:1025DC0002D00123436170470B690363F9E700BF25
:1025EC00002C014040B310B5044690F83D30F3B1D7
:1025FC00022384F83D30214651F8040BFFF7C0FF4D
:10260C00012384F8463084F83E3084F83F3084F857
:10261C00403084F8413084F8423084F8433084F8F8
:10262C00443084F8453084F83D30002010BD80F8EB
:10263C003C30FEF7E1FFDBE70120704740B310B5FB
:10264C00044690F83D30F3B1022384F83D30214626
:10265C0051F8040BFFF794FF012384F8463084F8FB
:10266C003E3084F83F3084F8403084F8413084F8B0
:10267C00423084F8433084F8443084F8453084F890
:10268C003D30002010BD80F83C30FFF7B7FEDBE793
:10269C000120704730B4036A026A22F01002026211
:1026AC004468826922F4E6420D6842EA052223F06E
:1026BC0020038D6843EA05130E4DA84209D00D4D39
:1026CC00A8420ED0446082614A688263036230BCC7
:1026DC00704723F08003CD6843EA051323F04003D1
:1026EC00EDE724F440644D6944EA85048D6944EABD
:1026FC008504E7E7002C014038B590F83C30012BFD
:10270C0066D004460D46012380F83C300C2A5AD87A
:10271C00DFE802F0075959591B5959593059595981
:10272C0044000068FFF788FD2268936943F00803B2
:10273C0093612268936923F004039361226893697F
:10274C0029690B43936100203EE00068FFF7A2FF6C
:10275C002268936943F4006393612268936923F4BC
:10276C008063936122689369296943EA0123936129
:10277C00002029E00068FFF78DFD2268D36943F043
:10278C000803D3612268D36923F00403D361226860
:10279C00D36929690B43D361002015E00068FFF76A
:1027AC00ABFD2268D36943F40063D3612268D3691B
:1027BC0023F48063D3612268D369296943EA012336
:1027CC00D361002000E00120002384F83C3038BDA8
:1027DC000220FCE710B4846824F47F4C42EA032204
:1027EC000A4342EA0C02826010BC704790F83C30FD
:1027FC00012B78D010B50446012380F83C3002231D
:10280C0080F83D300268936823F47F4323F077030C
:10281C0093600B68602B4CD029D8402B54D00CD92A
:10282C00502B22D1CA6849680068FFF789FD5021F6
:10283C002068FFF7AAFD002005E0202B0DD009D958
:10284C00302B0AD00120012384F83D30002384F87A
:10285C003C3010BD0BB1102B05D119462068FFF789
:10286C0094FD0020EFE70120EDE70120EBE7B3F545
:10287C00805F34D0B3F5005F0CD1CB684A688968AF
:10288C000068FFF7A7FF2268936843F480439360C6
:10289C000020D8E7702B24D1CB684A68896800687F
:1028AC00FFF798FF2268936843F07703936000204A
:1028BC00C9E7CA6849680068FFF754FD60212068C1
:1028CC00FFF763FD0020BEE7CA6849680068FFF7A0
:1028DC0037FD40212068FFF758FD0020B3E70020AA
:1028EC00B1E70120AFE70220704701F01F0101237F
:1028FC0003FA01FC036A23EA0C030362036A02FA7B
:10290C0001F10B430362704710B504460846B1B998
:10291C0094F83E30DBB2013B18BF0123002B78D179
:10292C0030BB022384F83E300C2874D8DFE800F06A
:10293C00307373734F737373557373735B00042924
:10294C0008D008290DD094F84130DBB2013B18BFF8
:10295C000123E3E794F83F30DBB2013B18BF0123BE
:10296C00DCE794F84030DBB2013B18BF0123D5E71C
:10297C00042805D0082807D0022384F84130D3E777
:10298C00022384F83F30CFE7022384F84030CBE7B2
:10299C002268D36843F00203D36001220146206809
:1029AC00FFF7A3FF23681E4A934222D023681C4AD8
:1029BC00934223D0B3F1804F20D0A2F594329342AE
:1029CC001CD01A6842F001021A60002024E0226830
:1029DC00D36843F00403D360DFE72268D36843F085
:1029EC000803D360D9E72268D36843F01003D3609F
:1029FC00D3E75A6C42F400425A64D7E79A6802F063
:102A0C000702062A09D01A6842F001021A60002057
:102A1C0002E0012000E0012010BD0020FCE700BF17
:102A2C00002C014038B505460C460C295FD8DFE870
:102A3C0001F0075E5E5E2A5E5E5E305E5E5E3600B4
:102A4C000268D36823F00203D36000222146286871
:102A5C00FFF74BFF2B68274A934226D02B68196A45
:102A6C0041F21112114208D1196A40F2444211424A
:102A7C0003D11A6822F001021A602CBB012385F8DD
:102A8C003E30002034E00268D36823F00403D360A6
:102A9C00DBE70268D36823F00803D360D5E702684C
:102AAC00D36823F01003D360CFE7196A41F21112F7
:102ABC001142D3D1196A40F244421142CED15A6C20
:102ACC0022F400425A64C9E7042C06D0082C09D021
:102ADC00012385F8413000200AE0012385F83F30BE
:102AEC00002005E0012385F84030002000E00120A3
:102AFC0038BD00BF002C014090F83C30012B28D091
:102B0C0010B4012380F83C30022380F83D30036878
:102B1C005A689C6822F0700C0A6842EA0C025A60EF
:102B2C0003680D4A934206D0B3F1804F03D0A2F54F
:102B3C009432934204D124F080044A6814439C607C
:102B4C00012380F83D30002380F83C30184610BC3F
:102B5C0070470220704700BF002C0140704770473F
:102B6C0070B50D4E0D4D761BB61006D0002455F8E1
:102B7C00043B01349847A642F9D1094E094D00F0A7
:102B8C00D5F8761BB61006D0002455F8043B01345A
:102B9C009847A642F9D170BDC4330008C43300086D
:102BAC00CC330008C4330008830730B548D0541E1A
:102BBC00002A3FD00346CAB201E0013C3AD303F8E5
:102BCC00012B9D07F9D1032C2DD9CDB245EA052552
:102BDC000F2C45EA054536D9A4F1100222F00F0C52
:102BEC0003F1200EE6444FEA121C03F1100242E9F5
:102BFC00045542E9025510327245F8D10CF101022C
:102C0C0014F00C0F03EB021204F00F0C13D0ACF108
:102C1C00040323F003030433134442F8045B93428C
:102C2C00FBD10CF003042CB1CAB21C4403F8012BE9
:102C3C009C42FBD130BD64461346002CF4D1F9E71D
:102C4C0003461446BFE71A46A446E0E7024B13B10D
:102C5C00024800F005B8704700000000792C00080D
:102C6C00002301461A46184600F01AB838B5084B2E
:102C7C00084D5B1B9C1007D0043B1D44013C55F8D0
:102C8C0004399847002CF9D1BDE8384000F054B80D
:102C9C00D0330008CC330008704700BF704700BF2A
:102CAC002DE9F047DFF87CA00646DAF800009846DC
:102CBC000F469146FFF7F0FF1B4B1B68D3F84841BA
:102CCC0024B365681F2D26DC5EB96B1C0235DAF85F
:102CDC000000636044F82570FFF7E0FF0020BDE8BA
:102CEC00F087012304EB8501C1F88890D4F8882182
:102CFC00AB401A43022EC4F88821C1F80881E4D1F4
:102D0C00D4F88C211343C4F88C31DEE703F5A67498
:102D1C00C3F84841D5E7DAF80000FFF7BFFF4FF0E2
:102D2C00FF30DCE770040020C0330008F8B500BFAA
:102D3C00F8BC08BC9E467047F8B500BFF8BC08BC90
:042D4C009E467047E8
:102D50000000000000000000000000000000000073
:102D6000000000F800000000000000333000000008
:102D700000100C06100C060000000000000000000F
:102D800040C07840C0784000043F04043F04040081
:102D9000007088FC08300000001820FF211E000091
:102DA000F008F000E018000000211C031E211E00A6
:102DB00000F00888700000001E212324192721102C
:102DC00010160E00000000000000000000000000CF
:102DD000000000E018040200000000071820400076
:102DE00000020418E0000000004020180700000066
:102DF000404080F0804040000202010F01020200CA
:102E0000000000F0000000000101011F01010100AD
:102E1000000000000000000080B070000000000012
:102E2000000000000000000000010101010101019B
:102E30000000000000000000003030000000000032
:102E40000000000080601804006018060100000007
:102E500000E010080810E000000F102020100F0004
:102E6000001010F8000000000020203F202000008B
:102E700000700808088870000030282422213000E3
:102E800000300888884830000018202020110E00EB
:102E90000000C02010F8000000070424243F240094
:102EA00000F80888880808000019212020110E0069
:102EB00000E0108888180000000F112020110E007B
:102EC00000380808C83808000000003F0000000073
:102ED0000070880808887000001C222121221C0034
:102EE00000E010080810E0000000312222110F005D
:102EF000000000C0C00000000000003030000000F2
:102F00000000008000000000000080600000000061
:102F1000000080402010080000010204081020007A
:102F200040404040404040000404040404040400C5
:102F3000000810204080000000201008040201005A
:102F4000007048080808F00000000030360100005A
:102F5000C030C828E810E0000718272423140B000D
:102F60000000C038E0000000203C23020227382087
:102F700008F8888888700000203F202020110E006B
:102F8000C030080808083800071820202010080062
:102F900008F808080810E000203F202020100F004B
:102FA00008F88888E8081000203F20202320180017
:102FB00008F88888E8081000203F2000030000007F
:102FC000C03008080838000007182020221E020020
:102FD00008F808000008F808203F210101213F20DF
:102FE000000808F8080800000020203F202000000A
:102FF00000000808F8080800C08080807F000000FA
:1030000008F888C028180800203F20012638200032
:1030100008F8080000000000203F20202020300099
:1030200008F8F800F8F80800203F003F003F2000B3
:1030300008F830C00008F808203F200007183F00BB
:10304000E01008080810E0000F10202020100F00EA
:1030500008F808080808F000203F210101010000DD
:10306000E01008080810E0000F18242438504F0022
:1030700008F8888888887000203F2000030C3020E2
:1030800000708808080838000038202121221C0020
:10309000180808F8080818000000203F2000000069
:1030A00008F808000008F808001F202020201F0052
:1030B0000878880000C83808000007380E010000B2
:1030C000F80800F80008F800033C0700073C03007C
:1030D000081868808068180820302C03032C3020E2
:1030E0000838C800C83808000000203F2000000051
:1030F00010080808C83808002038262120201800A9
:10310000000000FE020202000000007F404040007C
:10311000000C30C000000000000000010638C000B4
:1031200000020202FE000000004040407F0000005C
:103130000000040202020400000000000000000081
:10314000000000000000000080808080808080807F
:103150000002020400000000000000000000000067
:1031600000008080808000000019242222223F205D
:1031700008F8008080000000003F112020110E00A0
:103180000000008080800000000E1120202011002F
:10319000000000808088F800000E112020103F20E1
:1031A0000000808080800000001F22222222130065
:1031B000008080F0888888180020203F20200000B0
:1031C0000000808080808000006B94949493600065
:1031D00008F8008080800000203F210000203F2070
:1031E00000809898000000000020203F2020000070
:1031F000000000809898000000C08080807F000060
:1032000008F8000080808000203F24022D3020003C
:10321000000808F8000000000020203F20200000E7
:103220008080808080808000203F20003F20003F01
:103230008080008080800000203F210000203F200F
:103240000000808080800000001F202020201F00C0
:10325000808000808000000080FFA12020110E00EF
:103260000000008080808000000E112020A0FF80E0
:10327000808080008080800020203F21200001008D
:1032800000008080808080000033242424241900E2
:10329000008080E0808000000000001F20200000EF
:1032A0008080000000808000001F202020103F2030
:1032B000808080000080808000010E3008060100C0
:1032C00080800080008080800F300C030C300F0065
:1032D00000808000808080000020312E0E31200090
:1032E000808080000080808080818E7018060100C0
:1032F00000808080808080000021302C22213000DE
:1033000000000000807C020200000000003F4040FE
:1033100000000000FF00000000000000FF000000AF
:103320000002027C800000000040403F00000000DE
:103330000006010102020404000000000000000079
:10334000484D4C0042504D3A0000000070743A0065
:103350006D000000730000004B65793A000000002A
:1033600070697463683A000020204E6320000000FA
:1033700020204E6420000000202042504D0000001C
:1033800020204B65790000007069746368000000BC
:103390007C7C000048656C6C6F0000000000000041
:1033A00000000000010203040607080902030405E7
:1033B000060708090A0B0C0D0E0F10100102000081
:0433C00048000020A1
:0833C400592C0008310100083A
:0433CC000D010008E7
:1033D0005A000000FC0400000000ED0500000000A1
:1033E000E1080000000004000400000000020202E6
:1033F00002020202020202020202020204000400AD
:103400005A0000000000FF01010000000024F40049
:103410000100000010000000000000003403002044
:103420009C030020040400200000000000000000B5
:10343000000000000000000000000000000000008C
:10344000000000000000000000000000000000007C
:10345000000000000000000000000000000000006C
:10346000000000000000000000000000000000005C
:10347000000000000000000000000000000000004C
:10348000000000000000000000000000000000003C
:10349000000000000000000000000000000000002C
:1034A000000000000000000000000000000000001C
:1034B000000000000000000000000000000000000C
:1034C00001000000000000000E33CDAB34126DE6A9
:1034D000ECDE05000B000000000000000000000012
:1034E00000000000000000000000000000000000DC
:1034F00000000000000000000000000000000000CC
:1035000000000000000000000000000000000000BB
:1035100000000000000000000000000000000000AB
:04384000000600205E
:040000050800181DBA
:00000001FF
